:020000040800F2
:1000000080060020890100086D0D00084D080008D9
:100010000D0B000871020008251A000800000000FE
:10002000000000000000000000000000FD0E0008BD
:10003000A103000800000000E10D0008B91200084B
:10004000A3010008A3010008A3010008A301000800
:10005000A3010008A3010008F9040008A301000897
:10006000A3010008A3010008A3010008A3010008E0
:10007000A3010008A3010008A3010008A3010008D0
:10008000A3010008A3010008A3010008A3010008C0
:10009000A3010008A3010008A3010008A3010008B0
:1000A000A3010008A3010008A3010008A3010008A0
:1000B000A3010008A3010008A3010008A301000890
:1000C000A3010008A3010008A3010008A301000880
:1000D000A3010008A3010008A3010008A301000870
:1000E000A3010008A3010008A301000800F002F822
:1000F00000F03AF80AA090E8000C82448344AAF188
:100100000107DA4501D100F02FF8AFF2090EBAE885
:100110000F0013F0010F18BFFB1A43F0010318473B
:100120003C1F00005C1F0000103A24BF78C878C153
:10013000FAD8520724BF30C830C144BF04680C60ED
:10014000704700000023002400250026103A28BF35
:1001500078C1FBD8520728BF30C148BF0B60704739
:100160001FB51FBD10B510BD00F031F81146FFF7E7
:10017000F7FF01F08CFC00F04FF803B4FFF7F2FF3B
:1001800003BC00F057F800000948804709480047C1
:10019000FEE7FEE7FEE7FEE7FEE7FEE7FEE7FEE737
:1001A000FEE7FEE704480549054A064B7047000094
:1001B000BD120008ED00000880000020800600202D
:1001C000800200208002002070477047704775460B
:1001D00000F02CF8AE4605006946534620F00700B3
:1001E000854618B020B5FFF7DDFFBDE820404FF091
:1001F00000064FF000074FF000084FF0000B21F011
:100200000701AC46ACE8C009ACE8C009ACE8C009DD
:10021000ACE8C0098D46704710B50446AFF30080C6
:100220002046BDE81040FFF7A8BF00000048704717
:100230001C00002001491820ABBEFEE7260002008A
:10024000704710B50121032000F0CCFD012140F6DC
:100250003D0000F0D7FD00F05BFC00F0A3F800F0DB
:1002600069FE00F045F800F0DDFD00F0D1FF10BDA3
:1002700000BFFEE710B500F045FB6F2000F018FB53
:1002800000F074FB00F0E4FA044600F059FBA4F11E
:100290004000102829D2DFE800F01E1412101C0EB6
:1002A0000C0A22260824201A1816002010BD01204E
:1002B000FCE70220FAE70320F8E70420F6E7052030
:1002C000F4E70620F2E70720F0E70820EEE7092030
:1002D000ECE70A20EAE70B20E8E70C20E6E70D2030
:1002E000E4E70E20E2E70F20E0E71020DEE7000061
:1002F00008B514208DF8030003208DF80200C020FB
:10030000ADF8000069460B4800F092F94021094819
:1003100000F06DFA8021074800F069FA012001F031
:1003200083FB0021072000F025F80321042000F0C2
:1003300021F808BD000C014070B504460D46C4F11B
:100340000B00C11700EB5171C910A0EBC101CCB279
:1003500005F00F000649085C05F080010844C5B2AD
:1003600004F10801C8B2294600F004F870BD00008D
:100370004C20000870B504460D4600F0C3FA04F0A6
:100380000F01602242EA410000F092FA00F0EEFA1A
:10039000284600F08DFA00F0E9FA00F0D1FA70BDBD
:1003A0007047000008B501214F4800F0CDF9042046
:1003B0008DF803008002ADF8000003208DF80200E4
:1003C00069464A4800F034F904208DF803004003E0
:1003D000ADF8000003208DF802006946434800F0A4
:1003E00027F904208DF803000820ADF80000032051
:1003F0008DF8020069463E4800F01AF904208DF895
:1004000003001020ADF8000003208DF802006946BB
:10041000374800F00DF904208DF803002020ADF8D6
:10042000000003208DF802006946314800F000F911
:1004300004208DF803008001ADF8000003208DF842
:10044000020069462A4800F0F3F804208DF8030002
:10045000C001ADF8000003208DF802006946244871
:1004600000F0E6F804208DF80300C002ADF80000AB
:1004700003208DF8020069461E4800F0D9F80420D8
:100480008DF803000003ADF8000003208DF8020092
:100490006946184800F0CCF804208DF803004003AA
:1004A000ADF8000003208DF802006946114800F005
:1004B000BFF804208DF803004002ADF800000320CF
:1004C0008DF8020069460A4800F0B2F804208DF861
:1004D00003000002ADF8000003208DF80200694619
:1004E000034800F0A5F808BD0002300000080140F4
:1004F000000C01400010014010B5012000F01AF876
:1005000001280FD10021800701F028F800214FF0C9
:10051000804001F006FA0121880701F01FF8012050
:1005200000F002F810BD00000149086070470000AB
:1005300014040140014600200022074B1B6803EA17
:100540000102054B14331B680B4013B10AB10120A3
:1005500000E0002070470000000401400021234912
:100560008279002A3AD00A46126803689A430B46F9
:100570001A600A1D126803689A430B1D1A600279FB
:1005800011440A6803681A430A60184A083212685C
:1005900003689A43154B08331A601A1D12680368E2
:1005A0009A43124B0C331A604279102A0ED11A1F4B
:1005B000126803681A430D4B08331A601A1D12683B
:1005C00003681A43094B0C331A600DE0074942795E
:1005D00011440A6803681A430A6005E0027911446D
:1005E0000A6803689A430A607047000000040140EB
:1005F00030B500228B071C0F0F2303FA04F20B4BBC
:100600008C1053F824309343084C8D1044F8253057
:1006100023468C1053F824308C07240F00FA04F47E
:100620002343024C8D1044F8253030BD08000140B2
:100630002DE9F04102460025002600200023002479
:10064000002791F803C00CF00F0591F803C00CF0DF
:10065000100CBCF1000F03D091F802C04CEA050564
:1006600091F800C0BCF1000F31D0146800202BE0DD
:100670004FF0010C0CFA00F3B1F800C00CEA0306CD
:100680009E4220D183004FF00F0C0CFA03F7BC43BD
:1006900005FA03FC4CEA040491F803C0BCF1280FEE
:1006A00006D14FF0010C0CFA00FCC2F814C00AE0AD
:1006B00091F803C0BCF1480F05D14FF0010C0CFAC2
:1006C00000FCC2F810C0401C0828D1D31460B1F857
:1006D00000C0BCF1FF0F34DD546800202EE000F1B3
:1006E000080C4FF0010808FA0CF3B1F800C00CEA4E
:1006F00003069E4221D183004FF00F0C0CFA03F742
:10070000BC4305FA03FC4CEA040491F803C0BCF1B5
:10071000280F05D100F1080C08FA0CF8C2F8148073
:1007200091F803C0BCF1480F07D100F1080C4FF05D
:10073000010808FA0CF8C2F81080401C0828CED333
:100740005460BDE8F0810000F0B50A4600230024A3
:100750000021002500F00046B6F1004F02D11D4EE9
:10076000F16901E01B4E7168C0F3034583B200F4E8
:100770004016B6F5401F08D121F07061154E76681D
:1007800026F07066134F7E6012E000F48016B6F516
:10079000801F06D1032606FA05F4A14341F07061DB
:1007A00006E0460D360103FA06F6B14341F07061EA
:1007B00022B1460D360103FA06F6314300F0004639
:1007C000B6F1004F02D1034EF16101E0014E7160BC
:1007D000F0BD0000000001400246002093680B407D
:1007E0000BB1012000E000207047416170470161BA
:1007F0007047000010B54FF480510248FFF7ECFF3E
:1008000010BD00000008014010B54FF4004102483F
:10081000FFF7E2FF10BD00000008014010B50821FD
:100820000148FFF7D9FF10BD000C014010B51021A1
:100830000148FFF7D1FF10BD000C014010B5202189
:100840000148FFF7C9FF10BD000C014000BFFEE7E3
:1008500070B500240120134908601348D0F81C012A
:1008600000251AE06006040E40211048FFF7BFFF84
:10087000022001F0F3F801200A4908600A48D0F884
:100880001C0108B1601CC4B240210848FFF7ADFF4D
:10089000022001F0E3F8681CC5B2082DE2DB204617
:1008A00070BD00009C81214200802142000C01406B
:1008B00070B50446002520E004F0800020B18021BE
:1008C0000F48FFF794FF03E080210D48FFF78DFFED
:1008D000022001F0C3F840210948FFF788FF0220F9
:1008E00001F0BCF840210648FFF77FFF022001F02D
:1008F000B5F86006040E681CC5B2082DDCDB70BDBF
:10090000000C014010B580210C48FFF770FF40211A
:100910000A48FFF76CFF022001F0A0F88021074889
:10092000FFF763FF022001F099F840210348FFF729
:100930005CFF022001F092F810BD0000000C0140A5
:1009400010B580210848FFF750FF40210648FFF707
:100950004EFF022001F082F880210348FFF747FF95
:10096000022001F07BF810BD000C014010B5012001
:10097000144908601448D0F81C01022001F06EF8F8
:1009800040211248FFF733FF022001F067F80024EE
:100990000CE001200B4908600B48D0F81C0100B99D
:1009A00006E0022001F05AF8601CC4B2FA2CF0DB19
:1009B00000BF40210548FFF718FF022001F04EF864
:1009C00010BD00009C81214200802142000C0140AA
:1009D00010B5FFF74FFC4A490860084600684949CE
:1009E000096888427DD047480068012813D04548EF
:1009F000006802280FD04348006803280BD0414804
:100A00000068042807D03F480068052803D03D4807
:100A10000068062802D1002000F06CFB384800680E
:100A20000A2866D2DFE800F02705090D11161B2001
:100A3000652D0A2000F05EFB5BE0142000F05AFBFD
:100A400057E01E2000F056FB53E06FF0090000F065
:100A500051FB4EE06FF0130000F04CFB49E06FF0EB
:100A60001D0000F047FB44E0012027490860962064
:100A700000F040FB3DE000202349086000F03AFB15
:100A800037E02D21022000F099FB022000F0D9FF71
:100A90005A21022000F092FB022000F0D2FF8721B1
:100AA000022000F08BFB022000F0CBFFB4210220DB
:100AB00000F084FB022000F0C4FF8721022000F038
:100AC0007DFB022000F0BDFF5A21022000F076FBE2
:100AD000022000F0B6FF2D21022000F06FFB022063
:100AE00000E00BE000F0ADFF0021022000F066FB0B
:100AF00000BF00BF024800680249086010BD000046
:100B00000C000020100000201400002000BFFEE7B1
:100B100000B589B001219048FFF716FE10208DF82E
:100B200023000002ADF8200003208DF8220008A960
:100B30008A48FFF77DFD4FF480518848FFF757FE44
:100B400010208DF823004002ADF8200003208DF81E
:100B5000220008A98148FFF76BFD4FF400517F4840
:100B6000FFF745FE10208DF823008002ADF820002D
:100B700003208DF8220008A97848FFF759FD4FF4AB
:100B800080417648FFF733FE10208DF82300C00225
:100B9000ADF8200003208DF8220008A96F48FFF768
:100BA00047FD4FF400416D48FFF721FE4020ADF8AE
:100BB000200018208DF8230003208DF8220008A9BA
:100BC0006748FFF735FD8020ADF8200018208DF82C
:100BD000230003208DF8220008A96148FFF728FDB3
:100BE0000120ADF8200018208DF8230003208DF897
:100BF000220008A95948FFF71BFD0220ADF820008C
:100C000018208DF8230003208DF8220008A95348EE
:100C1000FFF70EFD4FF48070ADF8200018208DF81E
:100C2000230003208DF8220008A94D48FFF700FD9E
:100C30004FF40070ADF8200018208DF82300032039
:100C40008DF8220008A94648FFF7F2FC4FF48060B7
:100C5000ADF8200018208DF8230003208DF8220025
:100C600008A93F48FFF7E4FC4FF40060ADF820000E
:100C700018208DF8230003208DF8220008A9384899
:100C8000FFF7D6FC40F2E730ADF818000020ADF8D1
:100C90001400ADF81A00ADF8160005A9314800F0AF
:100CA0006FFE05A9304800F06BFE7020ADF804001F
:100CB0000120ADF806000020ADF80C0001A929487C
:100CC00000F0C4FC01A9274800F016FD01A9254841
:100CD00000F072FD01A9234800F0C8FD01A92248D7
:100CE00000F0B4FC01A9204800F006FD01A91E484F
:100CF00000F062FD01A91C4800F0B8FD0821194868
:100D000000F0F0FC0821174800F048FD08211548C4
:100D100000F0A2FD0821134800F0E6FD082112486A
:100D200000F0E0FC0821104800F038FD08210E48D2
:100D300000F092FD08210C4800F0D6FD0121094881
:100D400000F018FC0121074800F008FC01210648CA
:100D500000F004FC09B000BD40001600000C01408A
:100D600000080140002C01400004004070470000D2
:100D700070B5002100230F22C47804B3154C2468F9
:100D800004F4E064C4F5E064210AC1F10403CA403C
:100D9000447804FA03F184781440214309010E4C8D
:100DA0000678A155047804F01F050124AC400578AD
:100DB0006D11AD0005F1E025C5F8004109E00478AA
:100DC00004F01F050124AC40044D0678761145F867
:100DD000264070BD0CED00E000E400E080E100E0A2
:100DE0007047000029B1064AD2690243044BDA6118
:100DF00004E0034AD2698243014BDA617047000084
:100E00000010024029B1064A92690243044B9A61DC
:100E100004E0034A92698243014B9A6170470000E3
:100E20000010024000B58BB001210846FFF7DAFF41
:100E300048208DF82B0003208DF82A000720ADF8FC
:100E400028000AA92C48FFF7F3FB00210846FFF70A
:100E5000CFFB00208DF8240008208DF8250001200C
:100E60008DF82600089008A8FFF778FB01208DF880
:100E70001F008DF81D0000208DF81E0006208DF843
:100E80001C0007A8FFF774FF0020ADF81200ADF8B2
:100E900016004FF6FF70ADF814004720ADF81000B3
:100EA00000208DF8180004A94FF0804000F068FD84
:100EB0000220ADF806000020ADF80A00ADF80C00E5
:100EC0000120ADF808000020ADF8040001A94FF0A2
:100ED000804000F05FFB0420ADF8040001A900078A
:100EE00000F058FB0820ADF8040001A9C00600F08E
:100EF00051FB0BB000BD000000080140704700002E
:100F000010B5FFF777FC0446FFF77EFC0444FFF7BB
:100F100085FC0444FFF78AFC0444FFF78FFC20445F
:100F200003490860084601780220FFF705FA10BD62
:100F30001800002008B501213048FFF705FC032008
:100F40008DF8020004208DF803008002ADF8000047
:100F500069462B48FFF76CFB04208DF80300400323
:100F6000ADF8000069462648FFF762FB04208DF8C3
:100F700003000820ADF8000069462248FFF758FB3F
:100F800004208DF803001020ADF8000069461D48CC
:100F9000FFF74EFB04208DF803002020ADF8000081
:100FA00069461848FFF744FB04208DF803008001D0
:100FB000ADF8000069461348FFF73AFB04208DF8AE
:100FC0000300C001ADF8000069460E48FFF730FB92
:100FD00004208DF80300C002ADF8000069460A48FD
:100FE000FFF726FB04208DF803000003ADF8000096
:100FF00069460548FFF71CFB08BD000000023000F1
:1010000000080140000C01400010014010B500F044
:1010100001F810BD0CB50020019000903348006825
:1010200040F480303149086000BF3048006800F467
:10103000003000900198401C0190009818B9019868
:10104000B0F5A06FF1D12948006800F4003010B16C
:101050000120009001E0002000900098012843D179
:101060002348006840F010002149086008460068E5
:1010700020F0030008600846006840F002000860A5
:101080001A48406819494860084640684860084660
:10109000406840F4806048600846406820F47C1056
:1010A00048600846406840F4E81048600846006818
:1010B00040F08070086000BF0C48006800F00070CD
:1010C0000028F9D00948406820F00300074948602B
:1010D0000846406840F00200486000BF034840688E
:1010E00000F00C000828F9D10CBD000000100240EF
:1010F000002002402DE9F0478246BAF5347F01DD39
:101100004FF4347A1AF5347F01DADFF89CA0BAF193
:10111000000F0BD1CAF57A7081B2244800F0FBFBB6
:101120004FF47A71214800F0F8FB3BE0BAF1000F70
:101130001CDD504600F08BFD80461D4A1D4B00F023
:101140009DFD064600221C4B00F0AAFC044600F060
:101150004FFD8246CAF57A7081B2144800F0DBFB7D
:101160004FF47A71114800F0D8FB1BE0504600F0B4
:101170006EFD06460E4A0F4B00F080FD044600222D
:101180000D4B00F079FE804600F032FD82464FF4B0
:101190007A71064800F0BFFB0AF57A7081B2034805
:1011A00000F0BBFBBDE8F08730FDFFFF000400400E
:1011B0009A9999999999E93F0080714070B50546CF
:1011C0000C46B42C00DDB4244FF416706043B421F7
:1011D00090FBF1F0963086B2012D04D0022D08D09C
:1011E000032D12D10BE031464FF0804000F093FB0D
:1011F0000BE031464FF0804000F08FFB05E03146B8
:101200004FF0804000F08BFB00BF00BF70BD0000BE
:1012100000B589B001210846FFF7E4FD0121042053
:10122000FFF7F0FD18208DF823000720ADF820000F
:1012300003208DF8220008A91E48FFF7F9F94FF0A6
:10124000804000F0FDF90020ADF81A00ADF816005E
:1012500041F61F40ADF81800C720ADF8140000207B
:101260008DF81C0005A94FF0804000F089FB01A813
:1012700000F047FB6020ADF804000120ADF8060047
:101280000020ADF80C00ADF80A0001A94FF0804035
:1012900000F0DCF901A94FF0804000F02DFA01A91F
:1012A0004FF0804000F088FA0121880700F056F9DD
:1012B00009B000BD000801407047000010B5134898
:1012C000006840F001001149086008464068104974
:1012D00008400E494860084600680E4908400B491E
:1012E00008600846006820F48020086008464068CE
:1012F00020F4FE0048604FF41F008860FFF786FE70
:101300004FF000600449086010BD0000001002406A
:101310000000FFF8FFFFF6FE08ED00E0F0B50C4618
:10132000154600220021068C4FF6FE773E400684CB
:10133000028B018C4FF60C7632407E1C06EA0316B7
:101340002E433243104EB0420ED0104EB0420BD05E
:10135000B0F1804F08D00E4EB04205D00D4EB042D5
:1013600002D00D4EB04206D14FF6FD76314044F02A
:101370000106314305E04FF6F576314044F00106B1
:10138000314302830184F0BD002C01400034014050
:101390000004004000080040000C0040F0B50C467E
:1013A0001546002200210026078C4FF6EF7C07EA45
:1013B0000C070784028B018C4FF6FF7707EA0416AF
:1013C00040F6FF473A404FF6FF7707EA03373A43C4
:1013D0004FF6FF7707EA05273A43114FB8420ED080
:1013E000104FB8420BD0B0F1804F08D00E4FB8422A
:1013F00005D00E4FB84202D00D4FB84206D14FF67D
:10140000DF77394046F01007394305E04FF65F7744
:10141000394044F01007394302830184F0BD0000D5
:10142000002C01400034014000040040000800404E
:10143000000C0040F0B50C461546002200210026A5
:10144000078C4FF6FF6C07EA0C070784828B018C30
:101450004FF6FF7707EA04264FF60C773A404FF62F
:10146000FF7707EA03172F433A43114FB8420ED0D4
:10147000104FB8420BD0B0F1804F08D00E4FB84299
:1014800005D00E4FB84202D00D4FB84206D14FF6EC
:10149000FF57394046F48077394305E04FF2FF5754
:1014A000394044F48077394382830184F0BD0000E1
:1014B000002C0140003401400004004000080040BE
:1014C000000C0040F0B50C46154600220021002615
:1014D000078C4EF6FF7C07EA0C070784828B018C91
:1014E0004FF6FF7707EA043640F6FF473A404FF6DB
:1014F000FF7707EA05273A434FF6FF7707EA0337F6
:101500003A43114FB8420ED0104FB8420BD0B0F151
:10151000804F08D00E4FB84205D00E4FB84202D0CF
:101520000D4FB84206D14DF6FF77394046F480574B
:10153000394305E047F6FF57394044F480573943B3
:1015400082830184F0BD0000002C01400034014082
:101550000004004000080040000C004021B1028857
:1015600042F00102028004E002884FF6FE731A4046
:101570000280704731B1B0F8442042F40042A0F834
:10158000442005E0B0F84420C2F30E02A0F8442045
:101590007047000070B505460C46244885420ED0C1
:1015A000234885420BD0B5F1804F08D021488542B1
:1015B00005D02148854202D02048854200D100E074
:1015C00000BF208850B92389A28861882846FFF788
:1015D000A5FEE188284600F0A6F925E02088042829
:1015E0000AD12389A28861882846FFF7D7FEE188BF
:1015F000284600F0A1F917E0208808280AD123899D
:10160000A28861882846FFF715FFE188284600F088
:10161000A0F909E02389A28861882846FFF752FFD4
:10162000E188284600F09EF970BD0000002C0140C2
:10163000003401400004004000080040000C00405D
:1016400001894FF6F87211400181704770B500248E
:1016500000220023058C4FF6FE7635400584028C6F
:101660008388048B4FF68F752C40B51E2C400D8857
:101670002C43751E2A400D892A434D882A43144D58
:10168000A8420BD0134DA84208D0134DA84205D054
:10169000124DA84202D0124DA84213D14FF6F77551
:1016A0002A404D892A434FF6FB752A408D882A43EC
:1016B0004FF6FF652B404FF6FF552B408D892B438E
:1016C000CD892B4383800483CD888586028470BDB9
:1016D000002C014000340140004001400044014022
:1016E000004801400A460021018B4FF6F77319406C
:1016F000114301837047000070B5002400220023CD
:10170000058C4FF6EF7635400584028C8388048B78
:1017100048F6FF752C404FF6FF452C400D884FF6DC
:10172000FF7606EA05252C434FF6DF752A400D8922
:1017300006EA05152A434D8806EA05152A43154D84
:10174000A84202D0144DA8421DD14FF67F752A4001
:101750004D894FF6FF7606EA05152A434FF6BF7509
:101760002A408D8806EA05152A434FF6FF352B409F
:101770004FF2FF752B408D8906EA85052B43CD89F5
:1017800006EA85052B4383800483CD880587028480
:1017900070BD0000002C0140003401400A460021C9
:1017A000018B4FF2FF7319404FF6FF7303EA0223D8
:1017B000194301837047000070B500240022002304
:1017C000058C4FF6FF6635400584028C8388848B38
:1017D0004FF68F752C404FF6FC752C400D882C432E
:1017E0004FF6FF552A400D894FF6FF7606EA05258C
:1017F0002A434D8806EA05252A43154DA84202D002
:10180000144DA8421DD14FF2FF752A404D894FF665
:10181000FF7606EA05252A434FF6FF352A408D88D4
:1018200006EA05252A434EF6FF752B404DF6FF7557
:101830002B408D8906EA05152B43CD8906EA05154F
:101840002B4383808483CD888587028470BD00000C
:10185000002C0140003401400A460021818B4FF6E4
:10186000F7731940114381837047000070B500225F
:1018700000230024058C4EF6FF7635400584038C4A
:101880008488828B48F6FF752A404FF6FF452A4030
:101890000D884FF6FF7606EA05252A434DF6FF75BB
:1018A0002B400D8906EA05352B434D8806EA0535A0
:1018B0002B430B4DA84202D00A4DA84208D14BF64B
:1018C000FF752C408D894FF6FF7606EA85152C436F
:1018D00084808283CD88A0F84050038470BD0000CE
:1018E000002C0140003401400A460021818B4FF258
:1018F000FF7319404FF6FF7303EA022319438183F4
:1019000070470021018041808180C1800181418137
:101910008181C181704781867047018770478187C7
:10192000704781847047028B4FF6F3731A4002832D
:10193000028B0A4302837047028B4FF2FF331A4037
:101940000283028B4FF6FF7303EA01231A430283DB
:101950007047828B4FF6F3731A408283828B0A435F
:1019600082837047828B4FF2FF331A408283828BCF
:101970004FF6FF7303EA01231A4382837047000086
:10198000002202881D4B98420ED01D4B98420BD06E
:10199000B0F1804F08D01B4B984205D01A4B9842AB
:1019A00002D01A4B984204D14FF68F731A404B88DD
:1019B0001A43174B984207D0164B984204D04FF663
:1019C000FF431A40CB881A4302808B8883850B889B
:1019D00003850A4B98420BD0094B984208D00E4B16
:1019E000984205D00D4B984202D00D4B984201D140
:1019F0000B7A03860123838270470000002C01408C
:101A0000003401400004004000080040000C004089
:101A1000001000400014004000400140004401401C
:101A20000048014000BFFEE700B5034603E04FF465
:101A30007A7000F013F8181EA3F101018BB2F6D1F1
:101A400000BD10B5044603E04FF47A70FFF7ECFFD9
:101A5000201EA4F101018CB2F6D110BD00EBC00133
:101A6000C9004FF0E022516100219161052111610F
:101A700000BF4FF0E021096901F480310029F8D05E
:101A800000214FF0E0229161042111617047FEF7BF
:101A9000D8FB03E0FEF79CFFFFF732FAFAE70000FD
:101AA00010B591EA030F48BF83F0004300F1EC81C9
:101AB000841A71EB030C05D2121943EB0C03001BC3
:101AC00061EB0C01DFF824E14FEA1154A4EB135C45
:101AD0001EEA430F18BF9EEA445F73D023EA0E0349
:101AE000DCF1200E21EA045143F4801332D322FAB0
:101AF0000CFE10EB0E0023FA0CFE41EB0E01CCF1B4
:101B0000200E03FA0EFE10EB0E0051F10001B1F5AC
:101B1000801FCCF1200E32D201EB045112FA0EF2EA
:101B2000BDE8104058BF7047401C38BF5FEA420212
:101B300018BF7047002814BF20F0010041F10001D8
:101B40004FEA410313F5001F38BF7047A1F1C041B0
:101B500000F08CB9012A43EB0302ACF1200CDCF15C
:101B60001F0E32BF4FF0000E23FA0CF310EB0300F0
:101B700041EB0451B4EB115FD0D0A1EB045101F55E
:101B8000801149085FEA300001EB04510ED350F197
:101B9000000038BF12FA0EFE08D1BDE81040C9E7B8
:101BA000401C38BF5FEA4202CAD1C3E7BDE810401B
:101BB0004FEA410313F5001F38BF7047A1F1C04140
:101BC00000F054B99EEA445F08D011EA5E0FBDE808
:101BD000104004BF01F0004100207047BDE81040F4
:101BE00070B500F0F5F800BF64FBBE3E0000E0FFFA
:101BF0004FEA41034FEA5353A3F58063D3F11E0329
:101C0000C8BFD3F1210C0CDD4FF0004242EAC122E3
:101C100042EA505232FA03FC8CEAE17CACEBE17010
:101C20007047102BC4BF0020704703F5787CBCF1CF
:101C3000FF3F04D06FF0004282EA2100704770B588
:101C400000F0C6F84992248000207047F2E710F0B7
:101C5000004248BF4042B0FA80F310FA03F10AD0C4
:101C6000C3F11D0303F580634FEA415002EB0352B9
:101C700002EBD12170474FF000007047DFF848C1F8
:101C800070B51CEA111E1EBF1CEA13159EEA0C0F4C
:101C900095EA0C0F00F06F8081EA030423EA4C13ED
:101CA0004EEAD47E21EA4C1141F4801143F48013B2
:101CB000AE44A1FB024CA0FB0365AEF17F7E36195A
:101CC00055EB0C05A1FB034C4CF10003A0FB021CDF
:101CD00016EB0C06654153F10003094218BF46F0AC
:101CE000010613F4007F0BD14FEA03314FEA0530B0
:101CF000340341EA155140EA16506FF003020AE03E
:101D00004FEAC3214FEAC520F40241EA555140EAA7
:101D100056506FF0020202EB2E4201EB025585EAAB
:101D2000CE710AD05FEA440C18BF24F0004450F191
:101D3000000041F1000120EAD47040F2FE7C6245CF
:101D400000D270BDA84214BF4FF080444FF0404411
:101D5000002E08BF0024BEF1806FA8BFA1F1C041D2
:101D6000BDE8704080F282804FF0000001F1C04178
:101D700001F0004170479EEA0C0F0CEA131518BFE2
:101D800095EA0C0F06D04FF0000081EA030E0EF02A
:101D9000004170BD00F01CF88900013E00F007B85A
:101DA00000F009B84FEA430C5FEA5C5C08D081EAB6
:101DB000030100F05BB84FEA410C5FEA5C5CF6D1CE
:101DC0004FF00000014970470000FF070000F87F56
:101DD0000EF1020E2EF0030E5EF8046B364205D4AF
:101DE000012A43EB030515F5001F12D8012841EB2A
:101DF000010C1CF5001F0CD80ED14FEAD17C15F553
:101E0000001F0CEB4C0C0CF1020C08BF4CEBD37C0C
:101E100004E04FF0080C01E04FEAD37C0CEB4C05DA
:101E200026FA05F606F00706B6F1040C06D20EEB0C
:101E3000860CBDE870404CF0010C6047DFE80CF008
:101E4000090B02024FF000414FF00000A1F5002104
:101E500070BD19461046012851EB010418BFD4F596
:101E6000001484BF002001F0004170BD0808A0F5F7
:101E700000114FEA3101704710B591EA030F48BFD6
:101E800083F000433FF514AE841A71EB030C07D2C4
:101E900012198CF0004C43EB0C03001B61EB0C019E
:101EA000DFF8A4E14FEA1154A4EB135C1EEA430FE0
:101EB00018BF9EEA445F00F0B08023EA6E035242EE
:101EC00021EA0451C3EB6E0338BF5B1EDCF1200E28
:101ED00025D322FA0CFE10EB0E0043FA0CFE41EB68
:101EE0000E01CCF1200E03FA0EFE10EB0E0051F1A4
:101EF0000001CCF1200E29D412FA0EF201EB0451AC
:101F0000BDE8104058BF7047401C1CBFB2F1004FE5
:101F1000704700280CBF491C20F00100704712EBED
:101F2000020E43EB030218BF4FF0010E4EEA4202CD
:101F3000ACF1200CDCF11E0E54D943FA0CFE10EB70
:101F40000E0051F1FF31CCF11E0ED5D50EF1010E70
:101F500012FA0EFE404141EB010101EB445C5FEAE5
:101F60005C5C10D910EBDE7001EB045138BFBEF1A0
:101F7000004FBDE8104018BF704700280CBF491C37
:101F800020F00100704730D24FEAD42C11F5001137
:101F900024F400641BD0B1FA81F20B3AA41AA41EF7
:101FA000D2F12003914030FA03F31943904001EB42
:101FB000CC71002C01EB0451BDE81040A8BF704764
:101FC00001F1C0414FF0000001F000417047B0FA4C
:101FD00080F310FA03F100D110BDE41A173C480554
:101FE000C90AE4E701EB045110BD491001EB0451AB
:101FF000BDE810404FEA300002E04FF000017047AA
:102000004A0008BF0042F8D0B2F5001F28BF704751
:1020100001F000414FF0000070479EEA445F07D096
:1020200011EA5E0FBDE8104004BF00210020704798
:10203000BDE8104070B5FFF7CBFE00BF40DFF63EB5
:1020400083F00041104670470000E0FF3F065B4F01
:10205000666D7D077F6F777C395E79717C20000823
:10206000000000201C000000280100089820000843
:102070001C0000206406000044010008000000006D
:102080000000000000000000000000000000000050
:08209000000000000000000048
:04000005080000ED02
:00000001FF
